{
  "_format": "hh-sol-artifact-1",
  "contractName": "WavePortal",
  "sourceName": "contracts/WavePortal.sol",
  "abi": [
    {
      "inputs": [],
      "stateMutability": "nonpayable",
      "type": "constructor"
    },
    {
      "inputs": [],
      "name": "WavePortal__MsgToYourself",
      "type": "error"
    },
    {
      "inputs": [],
      "name": "WavePortal__WaveDoesntExist",
      "type": "error"
    },
    {
      "anonymous": false,
      "inputs": [
        {
          "indexed": true,
          "internalType": "address",
          "name": "from",
          "type": "address"
        },
        {
          "indexed": false,
          "internalType": "uint256",
          "name": "timestamp",
          "type": "uint256"
        },
        {
          "indexed": false,
          "internalType": "string",
          "name": "message",
          "type": "string"
        }
      ],
      "name": "NewWave",
      "type": "event"
    },
    {
      "anonymous": false,
      "inputs": [
        {
          "indexed": true,
          "internalType": "address",
          "name": "from",
          "type": "address"
        },
        {
          "indexed": false,
          "internalType": "uint256",
          "name": "waveId",
          "type": "uint256"
        },
        {
          "indexed": false,
          "internalType": "bool",
          "name": "like",
          "type": "bool"
        }
      ],
      "name": "ToggleLike",
      "type": "event"
    },
    {
      "anonymous": false,
      "inputs": [
        {
          "indexed": true,
          "internalType": "address",
          "name": "from",
          "type": "address"
        },
        {
          "indexed": false,
          "internalType": "uint256",
          "name": "waveId",
          "type": "uint256"
        }
      ],
      "name": "WaveRemoved",
      "type": "event"
    },
    {
      "inputs": [
        {
          "internalType": "uint256",
          "name": "waveId",
          "type": "uint256"
        }
      ],
      "name": "deleteWave",
      "outputs": [],
      "stateMutability": "nonpayable",
      "type": "function"
    },
    {
      "inputs": [],
      "name": "getTotalWavesCount",
      "outputs": [
        {
          "internalType": "uint256",
          "name": "",
          "type": "uint256"
        }
      ],
      "stateMutability": "view",
      "type": "function"
    },
    {
      "inputs": [
        {
          "internalType": "uint256",
          "name": "waveId",
          "type": "uint256"
        }
      ],
      "name": "getWaveById",
      "outputs": [
        {
          "components": [
            {
              "internalType": "uint256",
              "name": "id",
              "type": "uint256"
            },
            {
              "internalType": "address",
              "name": "waver",
              "type": "address"
            },
            {
              "internalType": "uint256",
              "name": "timestamp",
              "type": "uint256"
            },
            {
              "internalType": "string",
              "name": "message",
              "type": "string"
            },
            {
              "internalType": "uint256",
              "name": "likesAmount",
              "type": "uint256"
            }
          ],
          "internalType": "struct WavePortal.Wave",
          "name": "",
          "type": "tuple"
        }
      ],
      "stateMutability": "view",
      "type": "function"
    },
    {
      "inputs": [],
      "name": "getWaves",
      "outputs": [
        {
          "components": [
            {
              "internalType": "uint256",
              "name": "id",
              "type": "uint256"
            },
            {
              "internalType": "address",
              "name": "waver",
              "type": "address"
            },
            {
              "internalType": "uint256",
              "name": "timestamp",
              "type": "uint256"
            },
            {
              "internalType": "string",
              "name": "message",
              "type": "string"
            },
            {
              "internalType": "uint256",
              "name": "likesAmount",
              "type": "uint256"
            }
          ],
          "internalType": "struct WavePortal.Wave[]",
          "name": "",
          "type": "tuple[]"
        }
      ],
      "stateMutability": "view",
      "type": "function"
    },
    {
      "inputs": [
        {
          "internalType": "address",
          "name": "",
          "type": "address"
        }
      ],
      "name": "lastWavedAt",
      "outputs": [
        {
          "internalType": "uint256",
          "name": "",
          "type": "uint256"
        }
      ],
      "stateMutability": "view",
      "type": "function"
    },
    {
      "inputs": [],
      "name": "owner",
      "outputs": [
        {
          "internalType": "address",
          "name": "",
          "type": "address"
        }
      ],
      "stateMutability": "view",
      "type": "function"
    },
    {
      "inputs": [
        {
          "internalType": "uint256",
          "name": "waveId",
          "type": "uint256"
        },
        {
          "internalType": "address",
          "name": "sender",
          "type": "address"
        }
      ],
      "name": "toggleLike",
      "outputs": [],
      "stateMutability": "nonpayable",
      "type": "function"
    },
    {
      "inputs": [
        {
          "internalType": "string",
          "name": "_message",
          "type": "string"
        }
      ],
      "name": "wave",
      "outputs": [],
      "stateMutability": "nonpayable",
      "type": "function"
    }
  ],
  "bytecode": "0x60806040523480156200001157600080fd5b5033600260006101000a81548173ffffffffffffffffffffffffffffffffffffffff021916908373ffffffffffffffffffffffffffffffffffffffff1602179055506200009e6040518060400160405280601581526020017f436f6e7374727563746f7220696e697469617465640000000000000000000000815250620000a460201b62000c301760201c565b6200022e565b6200014481604051602401620000bb91906200020a565b6040516020818303038152906040527f41304fac000000000000000000000000000000000000000000000000000000007bffffffffffffffffffffffffffffffffffffffffffffffffffffffff19166020820180517bffffffffffffffffffffffffffffffffffffffffffffffffffffffff83818316178352505050506200014760201b60201c565b50565b60008151905060006a636f6e736f6c652e6c6f679050602083016000808483855afa5050505050565b600081519050919050565b600082825260208201905092915050565b60005b83811015620001ac5780820151818401526020810190506200018f565b60008484015250505050565b6000601f19601f8301169050919050565b6000620001d68262000170565b620001e281856200017b565b9350620001f48185602086016200018c565b620001ff81620001b8565b840191505092915050565b60006020820190508181036000830152620002268184620001c9565b905092915050565b611977806200023e6000396000f3fe608060405234801561001057600080fd5b50600436106100885760003560e01c8063a42a46631161005b578063a42a466314610101578063a9d42f7e14610131578063af8aca331461014f578063f924ebc81461016b57610088565b8063328e2ac71461008d578063449d46c0146100a95780638da5cb5b146100c55780639d9e7ef5146100e3575b600080fd5b6100a760048036038101906100a29190610dde565b61019b565b005b6100c360048036038101906100be9190610f51565b6103e5565b005b6100cd61061d565b6040516100da9190610fdb565b60405180910390f35b6100eb610643565b6040516100f89190611005565b60405180910390f35b61011b6004803603810190610116919061104c565b61064d565b6040516101289190611005565b60405180910390f35b610139610665565b604051610146919061124e565b60405180910390f35b61016960048036038101906101649190611270565b6107ca565b005b61018560048036038101906101809190610dde565b610a8f565b6040516101929190611326565b60405180910390f35b6000600382815481106101b1576101b0611348565b5b906000526020600020906005020160020154036101fa576040517fb50faa8700000000000000000000000000000000000000000000000000000000815260040160405180910390fd5b60008190505b600160038054905061021291906113a6565b81101561031957600360018261022891906113da565b8154811061023957610238611348565b5b90600052602060002090600502016003828154811061025b5761025a611348565b5b9060005260206000209060050201600082015481600001556001820160009054906101000a900473ffffffffffffffffffffffffffffffffffffffff168160010160006101000a81548173ffffffffffffffffffffffffffffffffffffffff021916908373ffffffffffffffffffffffffffffffffffffffff16021790555060028201548160020155600382018160030190816102f89190611630565b5060048201548160040155905050808061031190611718565b915050610200565b50600380548061032c5761032b611760565b5b60019003818190600052602060002090600502016000808201600090556001820160006101000a81549073ffffffffffffffffffffffffffffffffffffffff021916905560028201600090556003820160006103889190610cf2565b6004820160009055505090553373ffffffffffffffffffffffffffffffffffffffff167f67a56ffcc2da7151f957a281f12bd45134f27316a82bdf13eaacff05e805aded826040516103da9190611005565b60405180910390a250565b6000600260009054906101000a900473ffffffffffffffffffffffffffffffffffffffff1673ffffffffffffffffffffffffffffffffffffffff163373ffffffffffffffffffffffffffffffffffffffff160361046e576040517f832ffd4800000000000000000000000000000000000000000000000000000000815260040160405180910390fd5b600180600082825461048091906113da565b9250508190555042600460003373ffffffffffffffffffffffffffffffffffffffff1673ffffffffffffffffffffffffffffffffffffffff1681526020019081526020016000208190555060036040518060a0016040528060005481526020013373ffffffffffffffffffffffffffffffffffffffff1681526020014281526020018481526020018381525090806001815401808255809150506001900390600052602060002090600502016000909190919091506000820151816000015560208201518160010160006101000a81548173ffffffffffffffffffffffffffffffffffffffff021916908373ffffffffffffffffffffffffffffffffffffffff1602179055506040820151816002015560608201518160030190816105a5919061178f565b506080820151816004015550506000808154809291906105c490611718565b91905055503373ffffffffffffffffffffffffffffffffffffffff167f5f7e16dc676677766a70e9c5628aa6c54ddb8b6e5188e2ae1e1f17f1ffbea71642846040516106119291906118ab565b60405180910390a25050565b600260009054906101000a900473ffffffffffffffffffffffffffffffffffffffff1681565b6000600154905090565b60046020528060005260406000206000915090505481565b60606003805480602002602001604051908101604052809291908181526020016000905b828210156107c157838290600052602060002090600502016040518060a0016040529081600082015481526020016001820160009054906101000a900473ffffffffffffffffffffffffffffffffffffffff1673ffffffffffffffffffffffffffffffffffffffff1673ffffffffffffffffffffffffffffffffffffffff168152602001600282015481526020016003820180546107269061143d565b80601f01602080910402602001604051908101604052809291908181526020018280546107529061143d565b801561079f5780601f106107745761010080835404028352916020019161079f565b820191906000526020600020905b81548152906001019060200180831161078257829003601f168201915b5050505050815260200160048201548152505081526020019060010190610689565b50505050905090565b6000600383815481106107e0576107df611348565b5b90600052602060002090600502016002015403610829576040517fb50faa8700000000000000000000000000000000000000000000000000000000815260040160405180910390fd5b6005600083815260200190815260200160002060008273ffffffffffffffffffffffffffffffffffffffff1673ffffffffffffffffffffffffffffffffffffffff16815260200190815260200160002060009054906101000a900460ff16156109375760006005600084815260200190815260200160002060008373ffffffffffffffffffffffffffffffffffffffff1673ffffffffffffffffffffffffffffffffffffffff16815260200190815260200160002060006101000a81548160ff02191690831515021790555060016003838154811061090b5761090a611348565b5b9060005260206000209060050201600401600082825461092b91906113a6565b925050819055506109de565b60016005600084815260200190815260200160002060008373ffffffffffffffffffffffffffffffffffffffff1673ffffffffffffffffffffffffffffffffffffffff16815260200190815260200160002060006101000a81548160ff0219169083151502179055506001600383815481106109b6576109b5611348565b5b906000526020600020906005020160040160008282546109d691906113da565b925050819055505b8073ffffffffffffffffffffffffffffffffffffffff167fa91049ac33c3b356237b34830694b9bfb195305471c57b80a76a3c428de53fb4836005600086815260200190815260200160002060008573ffffffffffffffffffffffffffffffffffffffff1673ffffffffffffffffffffffffffffffffffffffff16815260200190815260200160002060009054906101000a900460ff16604051610a839291906118f6565b60405180910390a25050565b610a97610d32565b600060038381548110610aad57610aac611348565b5b90600052602060002090600502016002015403610af6576040517fb50faa8700000000000000000000000000000000000000000000000000000000815260040160405180910390fd5b60038281548110610b0a57610b09611348565b5b90600052602060002090600502016040518060a0016040529081600082015481526020016001820160009054906101000a900473ffffffffffffffffffffffffffffffffffffffff1673ffffffffffffffffffffffffffffffffffffffff1673ffffffffffffffffffffffffffffffffffffffff16815260200160028201548152602001600382018054610b9d9061143d565b80601f0160208091040260200160405190810160405280929190818152602001828054610bc99061143d565b8015610c165780601f10610beb57610100808354040283529160200191610c16565b820191906000526020600020905b815481529060010190602001808311610bf957829003601f168201915b505050505081526020016004820154815250509050919050565b610cc681604051602401610c44919061191f565b6040516020818303038152906040527f41304fac000000000000000000000000000000000000000000000000000000007bffffffffffffffffffffffffffffffffffffffffffffffffffffffff19166020820180517bffffffffffffffffffffffffffffffffffffffffffffffffffffffff8381831617835250505050610cc9565b50565b60008151905060006a636f6e736f6c652e6c6f679050602083016000808483855afa5050505050565b508054610cfe9061143d565b6000825580601f10610d105750610d2f565b601f016020900490600052602060002090810190610d2e9190610d77565b5b50565b6040518060a0016040528060008152602001600073ffffffffffffffffffffffffffffffffffffffff1681526020016000815260200160608152602001600081525090565b5b80821115610d90576000816000905550600101610d78565b5090565b6000604051905090565b600080fd5b600080fd5b6000819050919050565b610dbb81610da8565b8114610dc657600080fd5b50565b600081359050610dd881610db2565b92915050565b600060208284031215610df457610df3610d9e565b5b6000610e0284828501610dc9565b91505092915050565b600080fd5b600080fd5b6000601f19601f8301169050919050565b7f4e487b7100000000000000000000000000000000000000000000000000000000600052604160045260246000fd5b610e5e82610e15565b810181811067ffffffffffffffff82111715610e7d57610e7c610e26565b5b80604052505050565b6000610e90610d94565b9050610e9c8282610e55565b919050565b600067ffffffffffffffff821115610ebc57610ebb610e26565b5b610ec582610e15565b9050602081019050919050565b82818337600083830152505050565b6000610ef4610eef84610ea1565b610e86565b905082815260208101848484011115610f1057610f0f610e10565b5b610f1b848285610ed2565b509392505050565b600082601f830112610f3857610f37610e0b565b5b8135610f48848260208601610ee1565b91505092915050565b600060208284031215610f6757610f66610d9e565b5b600082013567ffffffffffffffff811115610f8557610f84610da3565b5b610f9184828501610f23565b91505092915050565b600073ffffffffffffffffffffffffffffffffffffffff82169050919050565b6000610fc582610f9a565b9050919050565b610fd581610fba565b82525050565b6000602082019050610ff06000830184610fcc565b92915050565b610fff81610da8565b82525050565b600060208201905061101a6000830184610ff6565b92915050565b61102981610fba565b811461103457600080fd5b50565b60008135905061104681611020565b92915050565b60006020828403121561106257611061610d9e565b5b600061107084828501611037565b91505092915050565b600081519050919050565b600082825260208201905092915050565b6000819050602082019050919050565b6110ae81610da8565b82525050565b6110bd81610fba565b82525050565b600081519050919050565b600082825260208201905092915050565b60005b838110156110fd5780820151818401526020810190506110e2565b60008484015250505050565b6000611114826110c3565b61111e81856110ce565b935061112e8185602086016110df565b61113781610e15565b840191505092915050565b600060a08301600083015161115a60008601826110a5565b50602083015161116d60208601826110b4565b50604083015161118060408601826110a5565b50606083015184820360608601526111988282611109565b91505060808301516111ad60808601826110a5565b508091505092915050565b60006111c48383611142565b905092915050565b6000602082019050919050565b60006111e482611079565b6111ee8185611084565b93508360208202850161120085611095565b8060005b8581101561123c578484038952815161121d85826111b8565b9450611228836111cc565b925060208a01995050600181019050611204565b50829750879550505050505092915050565b6000602082019050818103600083015261126881846111d9565b905092915050565b6000806040838503121561128757611286610d9e565b5b600061129585828601610dc9565b92505060206112a685828601611037565b9150509250929050565b600060a0830160008301516112c860008601826110a5565b5060208301516112db60208601826110b4565b5060408301516112ee60408601826110a5565b50606083015184820360608601526113068282611109565b915050608083015161131b60808601826110a5565b508091505092915050565b6000602082019050818103600083015261134081846112b0565b905092915050565b7f4e487b7100000000000000000000000000000000000000000000000000000000600052603260045260246000fd5b7f4e487b7100000000000000000000000000000000000000000000000000000000600052601160045260246000fd5b60006113b182610da8565b91506113bc83610da8565b92508282039050818111156113d4576113d3611377565b5b92915050565b60006113e582610da8565b91506113f083610da8565b925082820190508082111561140857611407611377565b5b92915050565b7f4e487b7100000000000000000000000000000000000000000000000000000000600052602260045260246000fd5b6000600282049050600182168061145557607f821691505b6020821081036114685761146761140e565b5b50919050565b60008154905061147d8161143d565b9050919050565b60008190508160005260206000209050919050565b60006020601f8301049050919050565b600082821b905092915050565b6000600883026114e67fffffffffffffffffffffffffffffffffffffffffffffffffffffffffffffffff826114a9565b6114f086836114a9565b95508019841693508086168417925050509392505050565b6000819050919050565b600061152d61152861152384610da8565b611508565b610da8565b9050919050565b6000819050919050565b61154783611512565b61155b61155382611534565b8484546114b6565b825550505050565b600090565b611570611563565b61157b81848461153e565b505050565b5b8181101561159f57611594600082611568565b600181019050611581565b5050565b601f8211156115e4576115b581611484565b6115be84611499565b810160208510156115cd578190505b6115e16115d985611499565b830182611580565b50505b505050565b600082821c905092915050565b6000611607600019846008026115e9565b1980831691505092915050565b600061162083836115f6565b9150826002028217905092915050565b81810361163e575050611716565b6116478261146e565b67ffffffffffffffff8111156116605761165f610e26565b5b61166a825461143d565b6116758282856115a3565b6000601f8311600181146116a45760008415611692578287015490505b61169c8582611614565b86555061170f565b601f1984166116b287611484565b96506116bd86611484565b60005b828110156116e5578489015482556001820191506001850194506020810190506116c0565b8683101561170257848901546116fe601f8916826115f6565b8355505b6001600288020188555050505b5050505050505b565b600061172382610da8565b91507fffffffffffffffffffffffffffffffffffffffffffffffffffffffffffffffff820361175557611754611377565b5b600182019050919050565b7f4e487b7100000000000000000000000000000000000000000000000000000000600052603160045260246000fd5b611798826110c3565b67ffffffffffffffff8111156117b1576117b0610e26565b5b6117bb825461143d565b6117c68282856115a3565b600060209050601f8311600181146117f957600084156117e7578287015190505b6117f18582611614565b865550611859565b601f19841661180786611484565b60005b8281101561182f5784890151825560018201915060208501945060208101905061180a565b8683101561184c5784890151611848601f8916826115f6565b8355505b6001600288020188555050505b505050505050565b600082825260208201905092915050565b600061187d826110c3565b6118878185611861565b93506118978185602086016110df565b6118a081610e15565b840191505092915050565b60006040820190506118c06000830185610ff6565b81810360208301526118d28184611872565b90509392505050565b60008115159050919050565b6118f0816118db565b82525050565b600060408201905061190b6000830185610ff6565b61191860208301846118e7565b9392505050565b600060208201905081810360008301526119398184611872565b90509291505056fea2646970667358221220e785da561e3e35e7456104f57f693c59a2302ccaa015280d5412405e70d8ec0964736f6c63430008110033",
  "linkReferences": {},
  "deployedLinkReferences": {}
}