{
  "address": "0x12adB1192e2ebfCf845A1826C504E882a27dfA4d",
  "abi": [
    {
      "inputs": [],
      "stateMutability": "nonpayable",
      "type": "constructor"
    },
    {
      "inputs": [],
      "name": "WavePortal__IsOnCooldown",
      "type": "error"
    },
    {
      "inputs": [],
      "name": "WavePortal__MsgToYourself",
      "type": "error"
    },
    {
      "inputs": [],
      "name": "WavePortal__WaveDoesntExist",
      "type": "error"
    },
    {
      "inputs": [],
      "name": "WavePortal__WaveWasntSentByYou",
      "type": "error"
    },
    {
      "anonymous": false,
      "inputs": [
        {
          "indexed": true,
          "internalType": "address",
          "name": "from",
          "type": "address"
        },
        {
          "indexed": false,
          "internalType": "uint256",
          "name": "timestamp",
          "type": "uint256"
        },
        {
          "indexed": false,
          "internalType": "string",
          "name": "message",
          "type": "string"
        }
      ],
      "name": "NewWave",
      "type": "event"
    },
    {
      "anonymous": false,
      "inputs": [
        {
          "indexed": true,
          "internalType": "address",
          "name": "from",
          "type": "address"
        },
        {
          "indexed": false,
          "internalType": "uint256",
          "name": "waveId",
          "type": "uint256"
        },
        {
          "indexed": false,
          "internalType": "bool",
          "name": "like",
          "type": "bool"
        }
      ],
      "name": "ToggleLike",
      "type": "event"
    },
    {
      "anonymous": false,
      "inputs": [
        {
          "indexed": true,
          "internalType": "address",
          "name": "from",
          "type": "address"
        },
        {
          "indexed": false,
          "internalType": "uint256",
          "name": "waveId",
          "type": "uint256"
        }
      ],
      "name": "WaveRemoved",
      "type": "event"
    },
    {
      "inputs": [
        {
          "internalType": "uint256",
          "name": "waveId",
          "type": "uint256"
        }
      ],
      "name": "deleteWave",
      "outputs": [],
      "stateMutability": "nonpayable",
      "type": "function"
    },
    {
      "inputs": [],
      "name": "getTotalWavesCount",
      "outputs": [
        {
          "internalType": "uint256",
          "name": "",
          "type": "uint256"
        }
      ],
      "stateMutability": "view",
      "type": "function"
    },
    {
      "inputs": [
        {
          "internalType": "uint256",
          "name": "waveId",
          "type": "uint256"
        }
      ],
      "name": "getWaveById",
      "outputs": [
        {
          "components": [
            {
              "internalType": "uint256",
              "name": "id",
              "type": "uint256"
            },
            {
              "internalType": "address",
              "name": "waver",
              "type": "address"
            },
            {
              "internalType": "uint256",
              "name": "timestamp",
              "type": "uint256"
            },
            {
              "internalType": "string",
              "name": "message",
              "type": "string"
            },
            {
              "internalType": "uint256",
              "name": "likesAmount",
              "type": "uint256"
            }
          ],
          "internalType": "struct WavePortal.Wave",
          "name": "",
          "type": "tuple"
        }
      ],
      "stateMutability": "view",
      "type": "function"
    },
    {
      "inputs": [],
      "name": "getWaves",
      "outputs": [
        {
          "components": [
            {
              "internalType": "uint256",
              "name": "id",
              "type": "uint256"
            },
            {
              "internalType": "address",
              "name": "waver",
              "type": "address"
            },
            {
              "internalType": "uint256",
              "name": "timestamp",
              "type": "uint256"
            },
            {
              "internalType": "string",
              "name": "message",
              "type": "string"
            },
            {
              "internalType": "uint256",
              "name": "likesAmount",
              "type": "uint256"
            }
          ],
          "internalType": "struct WavePortal.Wave[]",
          "name": "",
          "type": "tuple[]"
        }
      ],
      "stateMutability": "view",
      "type": "function"
    },
    {
      "inputs": [
        {
          "internalType": "address",
          "name": "",
          "type": "address"
        }
      ],
      "name": "lastWavedAt",
      "outputs": [
        {
          "internalType": "uint256",
          "name": "",
          "type": "uint256"
        }
      ],
      "stateMutability": "view",
      "type": "function"
    },
    {
      "inputs": [],
      "name": "owner",
      "outputs": [
        {
          "internalType": "address",
          "name": "",
          "type": "address"
        }
      ],
      "stateMutability": "view",
      "type": "function"
    },
    {
      "inputs": [
        {
          "internalType": "uint256",
          "name": "waveId",
          "type": "uint256"
        }
      ],
      "name": "toggleLike",
      "outputs": [],
      "stateMutability": "nonpayable",
      "type": "function"
    },
    {
      "inputs": [
        {
          "internalType": "string",
          "name": "_message",
          "type": "string"
        }
      ],
      "name": "wave",
      "outputs": [],
      "stateMutability": "nonpayable",
      "type": "function"
    }
  ],
  "transactionHash": "0x926bb529f9c4cbc482b0659274e9b850deee1cf828a7aa140ade726e89b71750",
  "args": [],
  "numDeployments": 1,
  "solcInputHash": "4f85d44d9dff086a0a63ea471db2b26c",
  "bytecode": "0x608060405234801561001057600080fd5b5033600260006101000a81548173ffffffffffffffffffffffffffffffffffffffff021916908373ffffffffffffffffffffffffffffffffffffffff1602179055506119de806100616000396000f3fe608060405234801561001057600080fd5b50600436106100885760003560e01c80639d9e7ef51161005b5780639d9e7ef5146100ff578063a42a46631461011d578063a9d42f7e1461014d578063f924ebc81461016b57610088565b8063328e2ac71461008d578063449d46c0146100a957806354398d18146100c55780638da5cb5b146100e1575b600080fd5b6100a760048036038101906100a29190610ea7565b61019b565b005b6100c360048036038101906100be919061101a565b6104eb565b005b6100df60048036038101906100da9190610ea7565b6107a9565b005b6100e9610a6d565b6040516100f691906110a4565b60405180910390f35b610107610a93565b60405161011491906110ce565b60405180910390f35b61013760048036038101906101329190611115565b610a9d565b60405161014491906110ce565b60405180910390f35b610155610ab5565b6040516101629190611317565b60405180910390f35b61018560048036038101906101809190610ea7565b610c1a565b60405161019291906113af565b60405180910390f35b6000600382815481106101b1576101b06113d1565b5b906000526020600020906005020160020154036101fa576040517fb50faa8700000000000000000000000000000000000000000000000000000000815260040160405180910390fd5b3373ffffffffffffffffffffffffffffffffffffffff1660038281548110610225576102246113d1565b5b906000526020600020906005020160010160009054906101000a900473ffffffffffffffffffffffffffffffffffffffff1673ffffffffffffffffffffffffffffffffffffffff16141580156102c95750600260009054906101000a900473ffffffffffffffffffffffffffffffffffffffff1673ffffffffffffffffffffffffffffffffffffffff163373ffffffffffffffffffffffffffffffffffffffff1614155b15610300576040517f26d12a2500000000000000000000000000000000000000000000000000000000815260040160405180910390fd5b60008190505b6001600380549050610318919061142f565b81101561041f57600360018261032e9190611463565b8154811061033f5761033e6113d1565b5b906000526020600020906005020160038281548110610361576103606113d1565b5b9060005260206000209060050201600082015481600001556001820160009054906101000a900473ffffffffffffffffffffffffffffffffffffffff168160010160006101000a81548173ffffffffffffffffffffffffffffffffffffffff021916908373ffffffffffffffffffffffffffffffffffffffff16021790555060028201548160020155600382018160030190816103fe91906116b9565b50600482015481600401559050508080610417906117a1565b915050610306565b506003805480610432576104316117e9565b5b60019003818190600052602060002090600502016000808201600090556001820160006101000a81549073ffffffffffffffffffffffffffffffffffffffff0219169055600282016000905560038201600061048e9190610dbb565b6004820160009055505090553373ffffffffffffffffffffffffffffffffffffffff167f67a56ffcc2da7151f957a281f12bd45134f27316a82bdf13eaacff05e805aded826040516104e091906110ce565b60405180910390a250565b6000600260009054906101000a900473ffffffffffffffffffffffffffffffffffffffff1673ffffffffffffffffffffffffffffffffffffffff163373ffffffffffffffffffffffffffffffffffffffff1603610574576040517f832ffd4800000000000000000000000000000000000000000000000000000000815260040160405180910390fd5b42610e10600460003373ffffffffffffffffffffffffffffffffffffffff1673ffffffffffffffffffffffffffffffffffffffff168152602001908152602001600020546105c29190611463565b11156105fa576040517f700412af00000000000000000000000000000000000000000000000000000000815260040160405180910390fd5b600180600082825461060c9190611463565b9250508190555042600460003373ffffffffffffffffffffffffffffffffffffffff1673ffffffffffffffffffffffffffffffffffffffff1681526020019081526020016000208190555060036040518060a0016040528060005481526020013373ffffffffffffffffffffffffffffffffffffffff1681526020014281526020018481526020018381525090806001815401808255809150506001900390600052602060002090600502016000909190919091506000820151816000015560208201518160010160006101000a81548173ffffffffffffffffffffffffffffffffffffffff021916908373ffffffffffffffffffffffffffffffffffffffff1602179055506040820151816002015560608201518160030190816107319190611818565b50608082015181600401555050600080815480929190610750906117a1565b91905055503373ffffffffffffffffffffffffffffffffffffffff167f5f7e16dc676677766a70e9c5628aa6c54ddb8b6e5188e2ae1e1f17f1ffbea716428460405161079d929190611934565b60405180910390a25050565b6000600382815481106107bf576107be6113d1565b5b90600052602060002090600502016002015403610808576040517fb50faa8700000000000000000000000000000000000000000000000000000000815260040160405180910390fd5b6005600082815260200190815260200160002060003373ffffffffffffffffffffffffffffffffffffffff1673ffffffffffffffffffffffffffffffffffffffff16815260200190815260200160002060009054906101000a900460ff16156109165760006005600083815260200190815260200160002060003373ffffffffffffffffffffffffffffffffffffffff1673ffffffffffffffffffffffffffffffffffffffff16815260200190815260200160002060006101000a81548160ff0219169083151502179055506001600382815481106108ea576108e96113d1565b5b9060005260206000209060050201600401600082825461090a919061142f565b925050819055506109bd565b60016005600083815260200190815260200160002060003373ffffffffffffffffffffffffffffffffffffffff1673ffffffffffffffffffffffffffffffffffffffff16815260200190815260200160002060006101000a81548160ff021916908315150217905550600160038281548110610995576109946113d1565b5b906000526020600020906005020160040160008282546109b59190611463565b925050819055505b3373ffffffffffffffffffffffffffffffffffffffff167fa91049ac33c3b356237b34830694b9bfb195305471c57b80a76a3c428de53fb4826005600085815260200190815260200160002060003373ffffffffffffffffffffffffffffffffffffffff1673ffffffffffffffffffffffffffffffffffffffff16815260200190815260200160002060009054906101000a900460ff16604051610a6292919061197f565b60405180910390a250565b600260009054906101000a900473ffffffffffffffffffffffffffffffffffffffff1681565b6000600154905090565b60046020528060005260406000206000915090505481565b60606003805480602002602001604051908101604052809291908181526020016000905b82821015610c1157838290600052602060002090600502016040518060a0016040529081600082015481526020016001820160009054906101000a900473ffffffffffffffffffffffffffffffffffffffff1673ffffffffffffffffffffffffffffffffffffffff1673ffffffffffffffffffffffffffffffffffffffff16815260200160028201548152602001600382018054610b76906114c6565b80601f0160208091040260200160405190810160405280929190818152602001828054610ba2906114c6565b8015610bef5780601f10610bc457610100808354040283529160200191610bef565b820191906000526020600020905b815481529060010190602001808311610bd257829003601f168201915b5050505050815260200160048201548152505081526020019060010190610ad9565b50505050905090565b610c22610dfb565b600060038381548110610c3857610c376113d1565b5b90600052602060002090600502016002015403610c81576040517fb50faa8700000000000000000000000000000000000000000000000000000000815260040160405180910390fd5b60038281548110610c9557610c946113d1565b5b90600052602060002090600502016040518060a0016040529081600082015481526020016001820160009054906101000a900473ffffffffffffffffffffffffffffffffffffffff1673ffffffffffffffffffffffffffffffffffffffff1673ffffffffffffffffffffffffffffffffffffffff16815260200160028201548152602001600382018054610d28906114c6565b80601f0160208091040260200160405190810160405280929190818152602001828054610d54906114c6565b8015610da15780601f10610d7657610100808354040283529160200191610da1565b820191906000526020600020905b815481529060010190602001808311610d8457829003601f168201915b505050505081526020016004820154815250509050919050565b508054610dc7906114c6565b6000825580601f10610dd95750610df8565b601f016020900490600052602060002090810190610df79190610e40565b5b50565b6040518060a0016040528060008152602001600073ffffffffffffffffffffffffffffffffffffffff1681526020016000815260200160608152602001600081525090565b5b80821115610e59576000816000905550600101610e41565b5090565b6000604051905090565b600080fd5b600080fd5b6000819050919050565b610e8481610e71565b8114610e8f57600080fd5b50565b600081359050610ea181610e7b565b92915050565b600060208284031215610ebd57610ebc610e67565b5b6000610ecb84828501610e92565b91505092915050565b600080fd5b600080fd5b6000601f19601f8301169050919050565b7f4e487b7100000000000000000000000000000000000000000000000000000000600052604160045260246000fd5b610f2782610ede565b810181811067ffffffffffffffff82111715610f4657610f45610eef565b5b80604052505050565b6000610f59610e5d565b9050610f658282610f1e565b919050565b600067ffffffffffffffff821115610f8557610f84610eef565b5b610f8e82610ede565b9050602081019050919050565b82818337600083830152505050565b6000610fbd610fb884610f6a565b610f4f565b905082815260208101848484011115610fd957610fd8610ed9565b5b610fe4848285610f9b565b509392505050565b600082601f83011261100157611000610ed4565b5b8135611011848260208601610faa565b91505092915050565b6000602082840312156110305761102f610e67565b5b600082013567ffffffffffffffff81111561104e5761104d610e6c565b5b61105a84828501610fec565b91505092915050565b600073ffffffffffffffffffffffffffffffffffffffff82169050919050565b600061108e82611063565b9050919050565b61109e81611083565b82525050565b60006020820190506110b96000830184611095565b92915050565b6110c881610e71565b82525050565b60006020820190506110e360008301846110bf565b92915050565b6110f281611083565b81146110fd57600080fd5b50565b60008135905061110f816110e9565b92915050565b60006020828403121561112b5761112a610e67565b5b600061113984828501611100565b91505092915050565b600081519050919050565b600082825260208201905092915050565b6000819050602082019050919050565b61117781610e71565b82525050565b61118681611083565b82525050565b600081519050919050565b600082825260208201905092915050565b60005b838110156111c65780820151818401526020810190506111ab565b60008484015250505050565b60006111dd8261118c565b6111e78185611197565b93506111f78185602086016111a8565b61120081610ede565b840191505092915050565b600060a083016000830151611223600086018261116e565b506020830151611236602086018261117d565b506040830151611249604086018261116e565b506060830151848203606086015261126182826111d2565b9150506080830151611276608086018261116e565b508091505092915050565b600061128d838361120b565b905092915050565b6000602082019050919050565b60006112ad82611142565b6112b7818561114d565b9350836020820285016112c98561115e565b8060005b8581101561130557848403895281516112e68582611281565b94506112f183611295565b925060208a019950506001810190506112cd565b50829750879550505050505092915050565b6000602082019050818103600083015261133181846112a2565b905092915050565b600060a083016000830151611351600086018261116e565b506020830151611364602086018261117d565b506040830151611377604086018261116e565b506060830151848203606086015261138f82826111d2565b91505060808301516113a4608086018261116e565b508091505092915050565b600060208201905081810360008301526113c98184611339565b905092915050565b7f4e487b7100000000000000000000000000000000000000000000000000000000600052603260045260246000fd5b7f4e487b7100000000000000000000000000000000000000000000000000000000600052601160045260246000fd5b600061143a82610e71565b915061144583610e71565b925082820390508181111561145d5761145c611400565b5b92915050565b600061146e82610e71565b915061147983610e71565b925082820190508082111561149157611490611400565b5b92915050565b7f4e487b7100000000000000000000000000000000000000000000000000000000600052602260045260246000fd5b600060028204905060018216806114de57607f821691505b6020821081036114f1576114f0611497565b5b50919050565b600081549050611506816114c6565b9050919050565b60008190508160005260206000209050919050565b60006020601f8301049050919050565b600082821b905092915050565b60006008830261156f7fffffffffffffffffffffffffffffffffffffffffffffffffffffffffffffffff82611532565b6115798683611532565b95508019841693508086168417925050509392505050565b6000819050919050565b60006115b66115b16115ac84610e71565b611591565b610e71565b9050919050565b6000819050919050565b6115d08361159b565b6115e46115dc826115bd565b84845461153f565b825550505050565b600090565b6115f96115ec565b6116048184846115c7565b505050565b5b818110156116285761161d6000826115f1565b60018101905061160a565b5050565b601f82111561166d5761163e8161150d565b61164784611522565b81016020851015611656578190505b61166a61166285611522565b830182611609565b50505b505050565b600082821c905092915050565b600061169060001984600802611672565b1980831691505092915050565b60006116a9838361167f565b9150826002028217905092915050565b8181036116c757505061179f565b6116d0826114f7565b67ffffffffffffffff8111156116e9576116e8610eef565b5b6116f382546114c6565b6116fe82828561162c565b6000601f83116001811461172d576000841561171b578287015490505b611725858261169d565b865550611798565b601f19841661173b8761150d565b96506117468661150d565b60005b8281101561176e57848901548255600182019150600185019450602081019050611749565b8683101561178b5784890154611787601f89168261167f565b8355505b6001600288020188555050505b5050505050505b565b60006117ac82610e71565b91507fffffffffffffffffffffffffffffffffffffffffffffffffffffffffffffffff82036117de576117dd611400565b5b600182019050919050565b7f4e487b7100000000000000000000000000000000000000000000000000000000600052603160045260246000fd5b6118218261118c565b67ffffffffffffffff81111561183a57611839610eef565b5b61184482546114c6565b61184f82828561162c565b600060209050601f8311600181146118825760008415611870578287015190505b61187a858261169d565b8655506118e2565b601f1984166118908661150d565b60005b828110156118b857848901518255600182019150602085019450602081019050611893565b868310156118d557848901516118d1601f89168261167f565b8355505b6001600288020188555050505b505050505050565b600082825260208201905092915050565b60006119068261118c565b61191081856118ea565b93506119208185602086016111a8565b61192981610ede565b840191505092915050565b600060408201905061194960008301856110bf565b818103602083015261195b81846118fb565b90509392505050565b60008115159050919050565b61197981611964565b82525050565b600060408201905061199460008301856110bf565b6119a16020830184611970565b939250505056fea2646970667358221220934e0ec2bbca4c2b3b5018f512ae3c3135f935f3dc05b1687af1d87dccfaf05864736f6c63430008110033",
  "devdoc": {
    "kind": "dev",
    "methods": {},
    "version": 1
  },
  "userdoc": {
    "kind": "user",
    "methods": {},
    "version": 1
  },
  "storageLayout": {
    "storage": [
      {
        "astId": 13,
        "contract": "contracts/WavePortal.sol:WavePortal",
        "label": "idCounter",
        "offset": 0,
        "slot": "0",
        "type": "t_uint256"
      },
      {
        "astId": 15,
        "contract": "contracts/WavePortal.sol:WavePortal",
        "label": "totalWaves",
        "offset": 0,
        "slot": "1",
        "type": "t_uint256"
      },
      {
        "astId": 17,
        "contract": "contracts/WavePortal.sol:WavePortal",
        "label": "owner",
        "offset": 0,
        "slot": "2",
        "type": "t_address"
      },
      {
        "astId": 54,
        "contract": "contracts/WavePortal.sol:WavePortal",
        "label": "waves",
        "offset": 0,
        "slot": "3",
        "type": "t_array(t_struct(Wave)50_storage)dyn_storage"
      },
      {
        "astId": 58,
        "contract": "contracts/WavePortal.sol:WavePortal",
        "label": "lastWavedAt",
        "offset": 0,
        "slot": "4",
        "type": "t_mapping(t_address,t_uint256)"
      },
      {
        "astId": 64,
        "contract": "contracts/WavePortal.sol:WavePortal",
        "label": "likes",
        "offset": 0,
        "slot": "5",
        "type": "t_mapping(t_uint256,t_mapping(t_address,t_bool))"
      }
    ],
    "types": {
      "t_address": {
        "encoding": "inplace",
        "label": "address",
        "numberOfBytes": "20"
      },
      "t_array(t_struct(Wave)50_storage)dyn_storage": {
        "base": "t_struct(Wave)50_storage",
        "encoding": "dynamic_array",
        "label": "struct WavePortal.Wave[]",
        "numberOfBytes": "32"
      },
      "t_bool": {
        "encoding": "inplace",
        "label": "bool",
        "numberOfBytes": "1"
      },
      "t_mapping(t_address,t_bool)": {
        "encoding": "mapping",
        "key": "t_address",
        "label": "mapping(address => bool)",
        "numberOfBytes": "32",
        "value": "t_bool"
      },
      "t_mapping(t_address,t_uint256)": {
        "encoding": "mapping",
        "key": "t_address",
        "label": "mapping(address => uint256)",
        "numberOfBytes": "32",
        "value": "t_uint256"
      },
      "t_mapping(t_uint256,t_mapping(t_address,t_bool))": {
        "encoding": "mapping",
        "key": "t_uint256",
        "label": "mapping(uint256 => mapping(address => bool))",
        "numberOfBytes": "32",
        "value": "t_mapping(t_address,t_bool)"
      },
      "t_string_storage": {
        "encoding": "bytes",
        "label": "string",
        "numberOfBytes": "32"
      },
      "t_struct(Wave)50_storage": {
        "encoding": "inplace",
        "label": "struct WavePortal.Wave",
        "members": [
          {
            "astId": 41,
            "contract": "contracts/WavePortal.sol:WavePortal",
            "label": "id",
            "offset": 0,
            "slot": "0",
            "type": "t_uint256"
          },
          {
            "astId": 43,
            "contract": "contracts/WavePortal.sol:WavePortal",
            "label": "waver",
            "offset": 0,
            "slot": "1",
            "type": "t_address"
          },
          {
            "astId": 45,
            "contract": "contracts/WavePortal.sol:WavePortal",
            "label": "timestamp",
            "offset": 0,
            "slot": "2",
            "type": "t_uint256"
          },
          {
            "astId": 47,
            "contract": "contracts/WavePortal.sol:WavePortal",
            "label": "message",
            "offset": 0,
            "slot": "3",
            "type": "t_string_storage"
          },
          {
            "astId": 49,
            "contract": "contracts/WavePortal.sol:WavePortal",
            "label": "likesAmount",
            "offset": 0,
            "slot": "4",
            "type": "t_uint256"
          }
        ],
        "numberOfBytes": "160"
      },
      "t_uint256": {
        "encoding": "inplace",
        "label": "uint256",
        "numberOfBytes": "32"
      }
    }
  }
}